{
  "address": "0xd851a091354df5088783FFEA46158E376c74Bc78",
  "abi": [
    {
      "inputs": [
        {
          "internalType": "string",
          "name": "name_",
          "type": "string"
        },
        {
          "internalType": "string",
          "name": "symbol_",
          "type": "string"
        }
      ],
      "stateMutability": "nonpayable",
      "type": "constructor"
    },
    {
      "anonymous": false,
      "inputs": [
        {
          "indexed": true,
          "internalType": "address",
          "name": "owner",
          "type": "address"
        },
        {
          "indexed": true,
          "internalType": "address",
          "name": "approved",
          "type": "address"
        },
        {
          "indexed": true,
          "internalType": "uint256",
          "name": "tokenId",
          "type": "uint256"
        }
      ],
      "name": "Approval",
      "type": "event"
    },
    {
      "anonymous": false,
      "inputs": [
        {
          "indexed": true,
          "internalType": "address",
          "name": "owner",
          "type": "address"
        },
        {
          "indexed": true,
          "internalType": "address",
          "name": "operator",
          "type": "address"
        },
        {
          "indexed": false,
          "internalType": "bool",
          "name": "approved",
          "type": "bool"
        }
      ],
      "name": "ApprovalForAll",
      "type": "event"
    },
    {
      "anonymous": false,
      "inputs": [
        {
          "indexed": true,
          "internalType": "address",
          "name": "previousOwner",
          "type": "address"
        },
        {
          "indexed": true,
          "internalType": "address",
          "name": "newOwner",
          "type": "address"
        }
      ],
      "name": "OwnershipTransferred",
      "type": "event"
    },
    {
      "anonymous": false,
      "inputs": [
        {
          "indexed": true,
          "internalType": "address",
          "name": "from",
          "type": "address"
        },
        {
          "indexed": true,
          "internalType": "address",
          "name": "to",
          "type": "address"
        },
        {
          "indexed": true,
          "internalType": "uint256",
          "name": "tokenId",
          "type": "uint256"
        }
      ],
      "name": "Transfer",
      "type": "event"
    },
    {
      "inputs": [
        {
          "internalType": "address",
          "name": "to",
          "type": "address"
        },
        {
          "internalType": "uint256",
          "name": "tokenId",
          "type": "uint256"
        }
      ],
      "name": "approve",
      "outputs": [],
      "stateMutability": "nonpayable",
      "type": "function"
    },
    {
      "inputs": [
        {
          "internalType": "address",
          "name": "owner",
          "type": "address"
        }
      ],
      "name": "balanceOf",
      "outputs": [
        {
          "internalType": "uint256",
          "name": "",
          "type": "uint256"
        }
      ],
      "stateMutability": "view",
      "type": "function"
    },
    {
      "inputs": [
        {
          "internalType": "uint256",
          "name": "tokenId",
          "type": "uint256"
        }
      ],
      "name": "getApproved",
      "outputs": [
        {
          "internalType": "address",
          "name": "",
          "type": "address"
        }
      ],
      "stateMutability": "view",
      "type": "function"
    },
    {
      "inputs": [
        {
          "internalType": "address",
          "name": "owner",
          "type": "address"
        },
        {
          "internalType": "address",
          "name": "operator",
          "type": "address"
        }
      ],
      "name": "isApprovedForAll",
      "outputs": [
        {
          "internalType": "bool",
          "name": "",
          "type": "bool"
        }
      ],
      "stateMutability": "view",
      "type": "function"
    },
    {
      "inputs": [],
      "name": "name",
      "outputs": [
        {
          "internalType": "string",
          "name": "",
          "type": "string"
        }
      ],
      "stateMutability": "view",
      "type": "function"
    },
    {
      "inputs": [],
      "name": "owner",
      "outputs": [
        {
          "internalType": "address",
          "name": "",
          "type": "address"
        }
      ],
      "stateMutability": "view",
      "type": "function"
    },
    {
      "inputs": [
        {
          "internalType": "uint256",
          "name": "tokenId",
          "type": "uint256"
        }
      ],
      "name": "ownerOf",
      "outputs": [
        {
          "internalType": "address",
          "name": "",
          "type": "address"
        }
      ],
      "stateMutability": "view",
      "type": "function"
    },
    {
      "inputs": [
        {
          "internalType": "uint256",
          "name": "",
          "type": "uint256"
        }
      ],
      "name": "postfix",
      "outputs": [
        {
          "internalType": "string",
          "name": "",
          "type": "string"
        }
      ],
      "stateMutability": "view",
      "type": "function"
    },
    {
      "inputs": [],
      "name": "renounceOwnership",
      "outputs": [],
      "stateMutability": "nonpayable",
      "type": "function"
    },
    {
      "inputs": [
        {
          "internalType": "address",
          "name": "to",
          "type": "address"
        },
        {
          "internalType": "uint256",
          "name": "tokenId",
          "type": "uint256"
        },
        {
          "internalType": "string",
          "name": "ipfsCID",
          "type": "string"
        }
      ],
      "name": "safeMint",
      "outputs": [],
      "stateMutability": "nonpayable",
      "type": "function"
    },
    {
      "inputs": [
        {
          "internalType": "address",
          "name": "from",
          "type": "address"
        },
        {
          "internalType": "address",
          "name": "to",
          "type": "address"
        },
        {
          "internalType": "uint256",
          "name": "tokenId",
          "type": "uint256"
        }
      ],
      "name": "safeTransferFrom",
      "outputs": [],
      "stateMutability": "nonpayable",
      "type": "function"
    },
    {
      "inputs": [
        {
          "internalType": "address",
          "name": "from",
          "type": "address"
        },
        {
          "internalType": "address",
          "name": "to",
          "type": "address"
        },
        {
          "internalType": "uint256",
          "name": "tokenId",
          "type": "uint256"
        },
        {
          "internalType": "bytes",
          "name": "_data",
          "type": "bytes"
        }
      ],
      "name": "safeTransferFrom",
      "outputs": [],
      "stateMutability": "nonpayable",
      "type": "function"
    },
    {
      "inputs": [
        {
          "internalType": "address",
          "name": "operator",
          "type": "address"
        },
        {
          "internalType": "bool",
          "name": "approved",
          "type": "bool"
        }
      ],
      "name": "setApprovalForAll",
      "outputs": [],
      "stateMutability": "nonpayable",
      "type": "function"
    },
    {
      "inputs": [
        {
          "internalType": "bytes4",
          "name": "interfaceId",
          "type": "bytes4"
        }
      ],
      "name": "supportsInterface",
      "outputs": [
        {
          "internalType": "bool",
          "name": "",
          "type": "bool"
        }
      ],
      "stateMutability": "view",
      "type": "function"
    },
    {
      "inputs": [],
      "name": "symbol",
      "outputs": [
        {
          "internalType": "string",
          "name": "",
          "type": "string"
        }
      ],
      "stateMutability": "view",
      "type": "function"
    },
    {
      "inputs": [
        {
          "internalType": "uint256",
          "name": "tokenId",
          "type": "uint256"
        }
      ],
      "name": "tokenURI",
      "outputs": [
        {
          "internalType": "string",
          "name": "",
          "type": "string"
        }
      ],
      "stateMutability": "view",
      "type": "function"
    },
    {
      "inputs": [
        {
          "internalType": "address",
          "name": "from",
          "type": "address"
        },
        {
          "internalType": "address",
          "name": "to",
          "type": "address"
        },
        {
          "internalType": "uint256",
          "name": "tokenId",
          "type": "uint256"
        }
      ],
      "name": "transferFrom",
      "outputs": [],
      "stateMutability": "nonpayable",
      "type": "function"
    },
    {
      "inputs": [
        {
          "internalType": "address",
          "name": "newOwner",
          "type": "address"
        }
      ],
      "name": "transferOwnership",
      "outputs": [],
      "stateMutability": "nonpayable",
      "type": "function"
    }
  ],
  "transactionHash": "0xd365311661604d217ede12863ceabd78035a6d49d247c3fbb8e34cce38cc4f72",
  "args": [
    "Taller de programacion 2 - Prizes",
    "TP2P"
  ],
  "solcInputHash": "055247d99b26efe8022dac11f2cb22a6",
  "bytecode": "0x60806040523480156200001157600080fd5b506040516200309c3803806200309c833981810160405281019062000037919062000250565b81818160009080519060200190620000519291906200012e565b5080600190805190602001906200006a9291906200012e565b50505060006200007f6200012660201b60201c565b905080600660006101000a81548173ffffffffffffffffffffffffffffffffffffffff021916908373ffffffffffffffffffffffffffffffffffffffff1602179055508073ffffffffffffffffffffffffffffffffffffffff16600073ffffffffffffffffffffffffffffffffffffffff167f8be0079c531659141344cd1fd0a4f28419497f9722a3daafe3b4186f6b6457e060405160405180910390a350505062000433565b600033905090565b8280546200013c9062000358565b90600052602060002090601f016020900481019282620001605760008555620001ac565b82601f106200017b57805160ff1916838001178555620001ac565b82800160010185558215620001ac579182015b82811115620001ab5782518255916020019190600101906200018e565b5b509050620001bb9190620001bf565b5090565b5b80821115620001da576000816000905550600101620001c0565b5090565b6000620001f5620001ef84620002ec565b620002c3565b9050828152602081018484840111156200020e57600080fd5b6200021b84828562000322565b509392505050565b600082601f8301126200023557600080fd5b815162000247848260208601620001de565b91505092915050565b600080604083850312156200026457600080fd5b600083015167ffffffffffffffff8111156200027f57600080fd5b6200028d8582860162000223565b925050602083015167ffffffffffffffff811115620002ab57600080fd5b620002b98582860162000223565b9150509250929050565b6000620002cf620002e2565b9050620002dd82826200038e565b919050565b6000604051905090565b600067ffffffffffffffff8211156200030a5762000309620003f3565b5b620003158262000422565b9050602081019050919050565b60005b838110156200034257808201518184015260208101905062000325565b8381111562000352576000848401525b50505050565b600060028204905060018216806200037157607f821691505b60208210811415620003885762000387620003c4565b5b50919050565b620003998262000422565b810181811067ffffffffffffffff82111715620003bb57620003ba620003f3565b5b80604052505050565b7f4e487b7100000000000000000000000000000000000000000000000000000000600052602260045260246000fd5b7f4e487b7100000000000000000000000000000000000000000000000000000000600052604160045260246000fd5b6000601f19601f8301169050919050565b612c5980620004436000396000f3fe608060405234801561001057600080fd5b50600436106101165760003560e01c8063715018a6116100a2578063b88d4fde11610071578063b88d4fde146102df578063c87b56dd146102fb578063cd279c7c1461032b578063e985e9c514610347578063f2fde38b1461037757610116565b8063715018a61461027d5780638da5cb5b1461028757806395d89b41146102a5578063a22cb465146102c357610116565b806323b872dd116100e957806323b872dd146101b557806342842e0e146101d15780636352211e146101ed578063687afb641461021d57806370a082311461024d57610116565b806301ffc9a71461011b57806306fdde031461014b578063081812fc14610169578063095ea7b314610199575b600080fd5b61013560048036038101906101309190611d7f565b610393565b60405161014291906121f4565b60405180910390f35b610153610475565b604051610160919061220f565b60405180910390f35b610183600480360381019061017e9190611dd1565b610507565b604051610190919061218d565b60405180910390f35b6101b360048036038101906101ae9190611cdc565b61058c565b005b6101cf60048036038101906101ca9190611bd6565b6106a4565b005b6101eb60048036038101906101e69190611bd6565b610704565b005b61020760048036038101906102029190611dd1565b610724565b604051610214919061218d565b60405180910390f35b61023760048036038101906102329190611dd1565b6107d6565b604051610244919061220f565b60405180910390f35b61026760048036038101906102629190611b71565b610876565b6040516102749190612431565b60405180910390f35b61028561092e565b005b61028f610a6b565b60405161029c919061218d565b60405180910390f35b6102ad610a95565b6040516102ba919061220f565b60405180910390f35b6102dd60048036038101906102d89190611ca0565b610b27565b005b6102f960048036038101906102f49190611c25565b610ca8565b005b61031560048036038101906103109190611dd1565b610d0a565b604051610322919061220f565b60405180910390f35b61034560048036038101906103409190611d18565b610d8d565b005b610361600480360381019061035c9190611b9a565b610e50565b60405161036e91906121f4565b60405180910390f35b610391600480360381019061038c9190611b71565b610ee4565b005b60007f80ac58cd000000000000000000000000000000000000000000000000000000007bffffffffffffffffffffffffffffffffffffffffffffffffffffffff1916827bffffffffffffffffffffffffffffffffffffffffffffffffffffffff1916148061045e57507f5b5e139f000000000000000000000000000000000000000000000000000000007bffffffffffffffffffffffffffffffffffffffffffffffffffffffff1916827bffffffffffffffffffffffffffffffffffffffffffffffffffffffff1916145b8061046e575061046d82611090565b5b9050919050565b6060600080546104849061266b565b80601f01602080910402602001604051908101604052809291908181526020018280546104b09061266b565b80156104fd5780601f106104d2576101008083540402835291602001916104fd565b820191906000526020600020905b8154815290600101906020018083116104e057829003601f168201915b5050505050905090565b6000610512826110fa565b610551576040517f08c379a000000000000000000000000000000000000000000000000000000000815260040161054890612391565b60405180910390fd5b6004600083815260200190815260200160002060009054906101000a900473ffffffffffffffffffffffffffffffffffffffff169050919050565b600061059782610724565b90508073ffffffffffffffffffffffffffffffffffffffff168373ffffffffffffffffffffffffffffffffffffffff161415610608576040517f08c379a00000000000000000000000000000000000000000000000000000000081526004016105ff906123f1565b60405180910390fd5b8073ffffffffffffffffffffffffffffffffffffffff16610627611166565b73ffffffffffffffffffffffffffffffffffffffff161480610656575061065581610650611166565b610e50565b5b610695576040517f08c379a000000000000000000000000000000000000000000000000000000000815260040161068c906122f1565b60405180910390fd5b61069f838361116e565b505050565b6106b56106af611166565b82611227565b6106f4576040517f08c379a00000000000000000000000000000000000000000000000000000000081526004016106eb90612411565b60405180910390fd5b6106ff838383611305565b505050565b61071f83838360405180602001604052806000815250610ca8565b505050565b6000806002600084815260200190815260200160002060009054906101000a900473ffffffffffffffffffffffffffffffffffffffff169050600073ffffffffffffffffffffffffffffffffffffffff168173ffffffffffffffffffffffffffffffffffffffff1614156107cd576040517f08c379a00000000000000000000000000000000000000000000000000000000081526004016107c490612331565b60405180910390fd5b80915050919050565b600760205280600052604060002060009150905080546107f59061266b565b80601f01602080910402602001604051908101604052809291908181526020018280546108219061266b565b801561086e5780601f106108435761010080835404028352916020019161086e565b820191906000526020600020905b81548152906001019060200180831161085157829003601f168201915b505050505081565b60008073ffffffffffffffffffffffffffffffffffffffff168273ffffffffffffffffffffffffffffffffffffffff1614156108e7576040517f08c379a00000000000000000000000000000000000000000000000000000000081526004016108de90612311565b60405180910390fd5b600360008373ffffffffffffffffffffffffffffffffffffffff1673ffffffffffffffffffffffffffffffffffffffff168152602001908152602001600020549050919050565b610936611166565b73ffffffffffffffffffffffffffffffffffffffff16610954610a6b565b73ffffffffffffffffffffffffffffffffffffffff16146109aa576040517f08c379a00000000000000000000000000000000000000000000000000000000081526004016109a1906123b1565b60405180910390fd5b600073ffffffffffffffffffffffffffffffffffffffff16600660009054906101000a900473ffffffffffffffffffffffffffffffffffffffff1673ffffffffffffffffffffffffffffffffffffffff167f8be0079c531659141344cd1fd0a4f28419497f9722a3daafe3b4186f6b6457e060405160405180910390a36000600660006101000a81548173ffffffffffffffffffffffffffffffffffffffff021916908373ffffffffffffffffffffffffffffffffffffffff160217905550565b6000600660009054906101000a900473ffffffffffffffffffffffffffffffffffffffff16905090565b606060018054610aa49061266b565b80601f0160208091040260200160405190810160405280929190818152602001828054610ad09061266b565b8015610b1d5780601f10610af257610100808354040283529160200191610b1d565b820191906000526020600020905b815481529060010190602001808311610b0057829003601f168201915b5050505050905090565b610b2f611166565b73ffffffffffffffffffffffffffffffffffffffff168273ffffffffffffffffffffffffffffffffffffffff161415610b9d576040517f08c379a0000000000000000000000000000000000000000000000000000000008152600401610b94906122b1565b60405180910390fd5b8060056000610baa611166565b73ffffffffffffffffffffffffffffffffffffffff1673ffffffffffffffffffffffffffffffffffffffff16815260200190815260200160002060008473ffffffffffffffffffffffffffffffffffffffff1673ffffffffffffffffffffffffffffffffffffffff16815260200190815260200160002060006101000a81548160ff0219169083151502179055508173ffffffffffffffffffffffffffffffffffffffff16610c57611166565b73ffffffffffffffffffffffffffffffffffffffff167f17307eab39ab6107e8899845ad3d59bd9653f200f220920489ca2b5937696c3183604051610c9c91906121f4565b60405180910390a35050565b610cb9610cb3611166565b83611227565b610cf8576040517f08c379a0000000000000000000000000000000000000000000000000000000008152600401610cef90612411565b60405180910390fd5b610d0484848484611561565b50505050565b6060610d15826110fa565b610d54576040517f08c379a0000000000000000000000000000000000000000000000000000000008152600401610d4b90612351565b60405180910390fd5b60076000838152602001908152602001600020604051602001610d77919061216b565b6040516020818303038152906040529050919050565b610d95611166565b73ffffffffffffffffffffffffffffffffffffffff16610db3610a6b565b73ffffffffffffffffffffffffffffffffffffffff1614610e09576040517f08c379a0000000000000000000000000000000000000000000000000000000008152600401610e00906123b1565b60405180910390fd5b610e238383604051806020016040528060008152506115bd565b80600760008481526020019081526020016000209080519060200190610e4a929190611995565b50505050565b6000600560008473ffffffffffffffffffffffffffffffffffffffff1673ffffffffffffffffffffffffffffffffffffffff16815260200190815260200160002060008373ffffffffffffffffffffffffffffffffffffffff1673ffffffffffffffffffffffffffffffffffffffff16815260200190815260200160002060009054906101000a900460ff16905092915050565b610eec611166565b73ffffffffffffffffffffffffffffffffffffffff16610f0a610a6b565b73ffffffffffffffffffffffffffffffffffffffff1614610f60576040517f08c379a0000000000000000000000000000000000000000000000000000000008152600401610f57906123b1565b60405180910390fd5b600073ffffffffffffffffffffffffffffffffffffffff168173ffffffffffffffffffffffffffffffffffffffff161415610fd0576040517f08c379a0000000000000000000000000000000000000000000000000000000008152600401610fc790612251565b60405180910390fd5b8073ffffffffffffffffffffffffffffffffffffffff16600660009054906101000a900473ffffffffffffffffffffffffffffffffffffffff1673ffffffffffffffffffffffffffffffffffffffff167f8be0079c531659141344cd1fd0a4f28419497f9722a3daafe3b4186f6b6457e060405160405180910390a380600660006101000a81548173ffffffffffffffffffffffffffffffffffffffff021916908373ffffffffffffffffffffffffffffffffffffffff16021790555050565b60007f01ffc9a7000000000000000000000000000000000000000000000000000000007bffffffffffffffffffffffffffffffffffffffffffffffffffffffff1916827bffffffffffffffffffffffffffffffffffffffffffffffffffffffff1916149050919050565b60008073ffffffffffffffffffffffffffffffffffffffff166002600084815260200190815260200160002060009054906101000a900473ffffffffffffffffffffffffffffffffffffffff1673ffffffffffffffffffffffffffffffffffffffff1614159050919050565b600033905090565b816004600083815260200190815260200160002060006101000a81548173ffffffffffffffffffffffffffffffffffffffff021916908373ffffffffffffffffffffffffffffffffffffffff160217905550808273ffffffffffffffffffffffffffffffffffffffff166111e183610724565b73ffffffffffffffffffffffffffffffffffffffff167f8c5be1e5ebec7d5bd14f71427d1e84f3dd0314c0f7b2291e5b200ac8c7c3b92560405160405180910390a45050565b6000611232826110fa565b611271576040517f08c379a0000000000000000000000000000000000000000000000000000000008152600401611268906122d1565b60405180910390fd5b600061127c83610724565b90508073ffffffffffffffffffffffffffffffffffffffff168473ffffffffffffffffffffffffffffffffffffffff1614806112eb57508373ffffffffffffffffffffffffffffffffffffffff166112d384610507565b73ffffffffffffffffffffffffffffffffffffffff16145b806112fc57506112fb8185610e50565b5b91505092915050565b8273ffffffffffffffffffffffffffffffffffffffff1661132582610724565b73ffffffffffffffffffffffffffffffffffffffff161461137b576040517f08c379a0000000000000000000000000000000000000000000000000000000008152600401611372906123d1565b60405180910390fd5b600073ffffffffffffffffffffffffffffffffffffffff168273ffffffffffffffffffffffffffffffffffffffff1614156113eb576040517f08c379a00000000000000000000000000000000000000000000000000000000081526004016113e290612291565b60405180910390fd5b6113f6838383611618565b61140160008261116e565b6001600360008573ffffffffffffffffffffffffffffffffffffffff1673ffffffffffffffffffffffffffffffffffffffff16815260200190815260200160002060008282546114519190612581565b925050819055506001600360008473ffffffffffffffffffffffffffffffffffffffff1673ffffffffffffffffffffffffffffffffffffffff16815260200190815260200160002060008282546114a8919061252b565b92505081905550816002600083815260200190815260200160002060006101000a81548173ffffffffffffffffffffffffffffffffffffffff021916908373ffffffffffffffffffffffffffffffffffffffff160217905550808273ffffffffffffffffffffffffffffffffffffffff168473ffffffffffffffffffffffffffffffffffffffff167fddf252ad1be2c89b69c2b068fc378daa952ba7f163c4a11628f55a4df523b3ef60405160405180910390a4505050565b61156c848484611305565b6115788484848461161d565b6115b7576040517f08c379a00000000000000000000000000000000000000000000000000000000081526004016115ae90612231565b60405180910390fd5b50505050565b6115c783836117b4565b6115d4600084848461161d565b611613576040517f08c379a000000000000000000000000000000000000000000000000000000000815260040161160a90612231565b60405180910390fd5b505050565b505050565b600061163e8473ffffffffffffffffffffffffffffffffffffffff16611982565b156117a7578373ffffffffffffffffffffffffffffffffffffffff1663150b7a02611667611166565b8786866040518563ffffffff1660e01b815260040161168994939291906121a8565b602060405180830381600087803b1580156116a357600080fd5b505af19250505080156116d457506040513d601f19601f820116820180604052508101906116d19190611da8565b60015b611757573d8060008114611704576040519150601f19603f3d011682016040523d82523d6000602084013e611709565b606091505b5060008151141561174f576040517f08c379a000000000000000000000000000000000000000000000000000000000815260040161174690612231565b60405180910390fd5b805181602001fd5b63150b7a0260e01b7bffffffffffffffffffffffffffffffffffffffffffffffffffffffff1916817bffffffffffffffffffffffffffffffffffffffffffffffffffffffff1916149150506117ac565b600190505b949350505050565b600073ffffffffffffffffffffffffffffffffffffffff168273ffffffffffffffffffffffffffffffffffffffff161415611824576040517f08c379a000000000000000000000000000000000000000000000000000000000815260040161181b90612371565b60405180910390fd5b61182d816110fa565b1561186d576040517f08c379a000000000000000000000000000000000000000000000000000000000815260040161186490612271565b60405180910390fd5b61187960008383611618565b6001600360008473ffffffffffffffffffffffffffffffffffffffff1673ffffffffffffffffffffffffffffffffffffffff16815260200190815260200160002060008282546118c9919061252b565b92505081905550816002600083815260200190815260200160002060006101000a81548173ffffffffffffffffffffffffffffffffffffffff021916908373ffffffffffffffffffffffffffffffffffffffff160217905550808273ffffffffffffffffffffffffffffffffffffffff16600073ffffffffffffffffffffffffffffffffffffffff167fddf252ad1be2c89b69c2b068fc378daa952ba7f163c4a11628f55a4df523b3ef60405160405180910390a45050565b600080823b905060008111915050919050565b8280546119a19061266b565b90600052602060002090601f0160209004810192826119c35760008555611a0a565b82601f106119dc57805160ff1916838001178555611a0a565b82800160010185558215611a0a579182015b82811115611a095782518255916020019190600101906119ee565b5b509050611a179190611a1b565b5090565b5b80821115611a34576000816000905550600101611a1c565b5090565b6000611a4b611a4684612471565b61244c565b905082815260208101848484011115611a6357600080fd5b611a6e848285612629565b509392505050565b6000611a89611a84846124a2565b61244c565b905082815260208101848484011115611aa157600080fd5b611aac848285612629565b509392505050565b600081359050611ac381612bc7565b92915050565b600081359050611ad881612bde565b92915050565b600081359050611aed81612bf5565b92915050565b600081519050611b0281612bf5565b92915050565b600082601f830112611b1957600080fd5b8135611b29848260208601611a38565b91505092915050565b600082601f830112611b4357600080fd5b8135611b53848260208601611a76565b91505092915050565b600081359050611b6b81612c0c565b92915050565b600060208284031215611b8357600080fd5b6000611b9184828501611ab4565b91505092915050565b60008060408385031215611bad57600080fd5b6000611bbb85828601611ab4565b9250506020611bcc85828601611ab4565b9150509250929050565b600080600060608486031215611beb57600080fd5b6000611bf986828701611ab4565b9350506020611c0a86828701611ab4565b9250506040611c1b86828701611b5c565b9150509250925092565b60008060008060808587031215611c3b57600080fd5b6000611c4987828801611ab4565b9450506020611c5a87828801611ab4565b9350506040611c6b87828801611b5c565b925050606085013567ffffffffffffffff811115611c8857600080fd5b611c9487828801611b08565b91505092959194509250565b60008060408385031215611cb357600080fd5b6000611cc185828601611ab4565b9250506020611cd285828601611ac9565b9150509250929050565b60008060408385031215611cef57600080fd5b6000611cfd85828601611ab4565b9250506020611d0e85828601611b5c565b9150509250929050565b600080600060608486031215611d2d57600080fd5b6000611d3b86828701611ab4565b9350506020611d4c86828701611b5c565b925050604084013567ffffffffffffffff811115611d6957600080fd5b611d7586828701611b32565b9150509250925092565b600060208284031215611d9157600080fd5b6000611d9f84828501611ade565b91505092915050565b600060208284031215611dba57600080fd5b6000611dc884828501611af3565b91505092915050565b600060208284031215611de357600080fd5b6000611df184828501611b5c565b91505092915050565b611e03816125b5565b82525050565b611e12816125c7565b82525050565b6000611e23826124e8565b611e2d81856124fe565b9350611e3d818560208601612638565b611e468161275b565b840191505092915050565b6000611e5c826124f3565b611e66818561250f565b9350611e76818560208601612638565b611e7f8161275b565b840191505092915050565b60008154611e978161266b565b611ea18186612520565b94506001821660008114611ebc5760018114611ecd57611f00565b60ff19831686528186019350611f00565b611ed6856124d3565b60005b83811015611ef857815481890152600182019150602081019050611ed9565b838801955050505b50505092915050565b6000611f1660328361250f565b9150611f218261276c565b604082019050919050565b6000611f3960268361250f565b9150611f44826127bb565b604082019050919050565b6000611f5c601c8361250f565b9150611f678261280a565b602082019050919050565b6000611f7f60248361250f565b9150611f8a82612833565b604082019050919050565b6000611fa260198361250f565b9150611fad82612882565b602082019050919050565b6000611fc5602c8361250f565b9150611fd0826128ab565b604082019050919050565b6000611fe8600783612520565b9150611ff3826128fa565b600782019050919050565b600061200b60388361250f565b915061201682612923565b604082019050919050565b600061202e602a8361250f565b915061203982612972565b604082019050919050565b600061205160298361250f565b915061205c826129c1565b604082019050919050565b600061207460108361250f565b915061207f82612a10565b602082019050919050565b600061209760208361250f565b91506120a282612a39565b602082019050919050565b60006120ba602c8361250f565b91506120c582612a62565b604082019050919050565b60006120dd60208361250f565b91506120e882612ab1565b602082019050919050565b600061210060298361250f565b915061210b82612ada565b604082019050919050565b600061212360218361250f565b915061212e82612b29565b604082019050919050565b600061214660318361250f565b915061215182612b78565b604082019050919050565b6121658161261f565b82525050565b600061217682611fdb565b91506121828284611e8a565b915081905092915050565b60006020820190506121a26000830184611dfa565b92915050565b60006080820190506121bd6000830187611dfa565b6121ca6020830186611dfa565b6121d7604083018561215c565b81810360608301526121e98184611e18565b905095945050505050565b60006020820190506122096000830184611e09565b92915050565b600060208201905081810360008301526122298184611e51565b905092915050565b6000602082019050818103600083015261224a81611f09565b9050919050565b6000602082019050818103600083015261226a81611f2c565b9050919050565b6000602082019050818103600083015261228a81611f4f565b9050919050565b600060208201905081810360008301526122aa81611f72565b9050919050565b600060208201905081810360008301526122ca81611f95565b9050919050565b600060208201905081810360008301526122ea81611fb8565b9050919050565b6000602082019050818103600083015261230a81611ffe565b9050919050565b6000602082019050818103600083015261232a81612021565b9050919050565b6000602082019050818103600083015261234a81612044565b9050919050565b6000602082019050818103600083015261236a81612067565b9050919050565b6000602082019050818103600083015261238a8161208a565b9050919050565b600060208201905081810360008301526123aa816120ad565b9050919050565b600060208201905081810360008301526123ca816120d0565b9050919050565b600060208201905081810360008301526123ea816120f3565b9050919050565b6000602082019050818103600083015261240a81612116565b9050919050565b6000602082019050818103600083015261242a81612139565b9050919050565b6000602082019050612446600083018461215c565b92915050565b6000612456612467565b9050612462828261269d565b919050565b6000604051905090565b600067ffffffffffffffff82111561248c5761248b61272c565b5b6124958261275b565b9050602081019050919050565b600067ffffffffffffffff8211156124bd576124bc61272c565b5b6124c68261275b565b9050602081019050919050565b60008190508160005260206000209050919050565b600081519050919050565b600081519050919050565b600082825260208201905092915050565b600082825260208201905092915050565b600081905092915050565b60006125368261261f565b91506125418361261f565b9250827fffffffffffffffffffffffffffffffffffffffffffffffffffffffffffffffff03821115612576576125756126ce565b5b828201905092915050565b600061258c8261261f565b91506125978361261f565b9250828210156125aa576125a96126ce565b5b828203905092915050565b60006125c0826125ff565b9050919050565b60008115159050919050565b60007fffffffff0000000000000000000000000000000000000000000000000000000082169050919050565b600073ffffffffffffffffffffffffffffffffffffffff82169050919050565b6000819050919050565b82818337600083830152505050565b60005b8381101561265657808201518184015260208101905061263b565b83811115612665576000848401525b50505050565b6000600282049050600182168061268357607f821691505b60208210811415612697576126966126fd565b5b50919050565b6126a68261275b565b810181811067ffffffffffffffff821117156126c5576126c461272c565b5b80604052505050565b7f4e487b7100000000000000000000000000000000000000000000000000000000600052601160045260246000fd5b7f4e487b7100000000000000000000000000000000000000000000000000000000600052602260045260246000fd5b7f4e487b7100000000000000000000000000000000000000000000000000000000600052604160045260246000fd5b6000601f19601f8301169050919050565b7f4552433732313a207472616e7366657220746f206e6f6e20455243373231526560008201527f63656976657220696d706c656d656e7465720000000000000000000000000000602082015250565b7f4f776e61626c653a206e6577206f776e657220697320746865207a65726f206160008201527f6464726573730000000000000000000000000000000000000000000000000000602082015250565b7f4552433732313a20746f6b656e20616c7265616479206d696e74656400000000600082015250565b7f4552433732313a207472616e7366657220746f20746865207a65726f2061646460008201527f7265737300000000000000000000000000000000000000000000000000000000602082015250565b7f4552433732313a20617070726f766520746f2063616c6c657200000000000000600082015250565b7f4552433732313a206f70657261746f7220717565727920666f72206e6f6e657860008201527f697374656e7420746f6b656e0000000000000000000000000000000000000000602082015250565b7f697066733a2f2f00000000000000000000000000000000000000000000000000600082015250565b7f4552433732313a20617070726f76652063616c6c6572206973206e6f74206f7760008201527f6e6572206e6f7220617070726f76656420666f7220616c6c0000000000000000602082015250565b7f4552433732313a2062616c616e636520717565727920666f7220746865207a6560008201527f726f206164647265737300000000000000000000000000000000000000000000602082015250565b7f4552433732313a206f776e657220717565727920666f72206e6f6e657869737460008201527f656e7420746f6b656e0000000000000000000000000000000000000000000000602082015250565b7f746f6b656e206e6f742065786973747300000000000000000000000000000000600082015250565b7f4552433732313a206d696e7420746f20746865207a65726f2061646472657373600082015250565b7f4552433732313a20617070726f76656420717565727920666f72206e6f6e657860008201527f697374656e7420746f6b656e0000000000000000000000000000000000000000602082015250565b7f4f776e61626c653a2063616c6c6572206973206e6f7420746865206f776e6572600082015250565b7f4552433732313a207472616e73666572206f6620746f6b656e2074686174206960008201527f73206e6f74206f776e0000000000000000000000000000000000000000000000602082015250565b7f4552433732313a20617070726f76616c20746f2063757272656e74206f776e6560008201527f7200000000000000000000000000000000000000000000000000000000000000602082015250565b7f4552433732313a207472616e736665722063616c6c6572206973206e6f74206f60008201527f776e6572206e6f7220617070726f766564000000000000000000000000000000602082015250565b612bd0816125b5565b8114612bdb57600080fd5b50565b612be7816125c7565b8114612bf257600080fd5b50565b612bfe816125d3565b8114612c0957600080fd5b50565b612c158161261f565b8114612c2057600080fd5b5056fea26469706673582212200183f1db597a5133c8ff8d926647b1a968f506da206f4cfcc67da39c46d667ac64736f6c63430008040033",
  "devdoc": {
    "kind": "dev",
    "methods": {
      "approve(address,uint256)": {
        "details": "See {IERC721-approve}."
      },
      "balanceOf(address)": {
        "details": "See {IERC721-balanceOf}."
      },
      "constructor": {
        "details": "Initializes the contract by setting a `name` and a `symbol` to the token collection."
      },
      "getApproved(uint256)": {
        "details": "See {IERC721-getApproved}."
      },
      "isApprovedForAll(address,address)": {
        "details": "See {IERC721-isApprovedForAll}."
      },
      "name()": {
        "details": "See {IERC721Metadata-name}."
      },
      "owner()": {
        "details": "Returns the address of the current owner."
      },
      "ownerOf(uint256)": {
        "details": "See {IERC721-ownerOf}."
      },
      "renounceOwnership()": {
        "details": "Leaves the contract without owner. It will not be possible to call `onlyOwner` functions anymore. Can only be called by the current owner. NOTE: Renouncing ownership will leave the contract without an owner, thereby removing any functionality that is only available to the owner."
      },
      "safeTransferFrom(address,address,uint256)": {
        "details": "See {IERC721-safeTransferFrom}."
      },
      "safeTransferFrom(address,address,uint256,bytes)": {
        "details": "See {IERC721-safeTransferFrom}."
      },
      "setApprovalForAll(address,bool)": {
        "details": "See {IERC721-setApprovalForAll}."
      },
      "supportsInterface(bytes4)": {
        "details": "See {IERC165-supportsInterface}."
      },
      "symbol()": {
        "details": "See {IERC721Metadata-symbol}."
      },
      "tokenURI(uint256)": {
        "details": "See {IERC721Metadata-tokenURI}."
      },
      "transferFrom(address,address,uint256)": {
        "details": "See {IERC721-transferFrom}."
      },
      "transferOwnership(address)": {
        "details": "Transfers ownership of the contract to a new account (`newOwner`). Can only be called by the current owner."
      }
    },
    "version": 1
  },
  "userdoc": {
    "kind": "user",
    "methods": {},
    "version": 1
  },
  "storageLayout": {
    "storage": [
      {
        "astId": 135,
        "contract": "contracts/Prizes.sol:Prizes",
        "label": "_name",
        "offset": 0,
        "slot": "0",
        "type": "t_string_storage"
      },
      {
        "astId": 137,
        "contract": "contracts/Prizes.sol:Prizes",
        "label": "_symbol",
        "offset": 0,
        "slot": "1",
        "type": "t_string_storage"
      },
      {
        "astId": 141,
        "contract": "contracts/Prizes.sol:Prizes",
        "label": "_owners",
        "offset": 0,
        "slot": "2",
        "type": "t_mapping(t_uint256,t_address)"
      },
      {
        "astId": 145,
        "contract": "contracts/Prizes.sol:Prizes",
        "label": "_balances",
        "offset": 0,
        "slot": "3",
        "type": "t_mapping(t_address,t_uint256)"
      },
      {
        "astId": 149,
        "contract": "contracts/Prizes.sol:Prizes",
        "label": "_tokenApprovals",
        "offset": 0,
        "slot": "4",
        "type": "t_mapping(t_uint256,t_address)"
      },
      {
        "astId": 155,
        "contract": "contracts/Prizes.sol:Prizes",
        "label": "_operatorApprovals",
        "offset": 0,
        "slot": "5",
        "type": "t_mapping(t_address,t_mapping(t_address,t_bool))"
      },
      {
        "astId": 7,
        "contract": "contracts/Prizes.sol:Prizes",
        "label": "_owner",
        "offset": 0,
        "slot": "6",
        "type": "t_address"
      },
      {
        "astId": 1659,
        "contract": "contracts/Prizes.sol:Prizes",
        "label": "postfix",
        "offset": 0,
        "slot": "7",
        "type": "t_mapping(t_uint256,t_string_storage)"
      }
    ],
    "types": {
      "t_address": {
        "encoding": "inplace",
        "label": "address",
        "numberOfBytes": "20"
      },
      "t_bool": {
        "encoding": "inplace",
        "label": "bool",
        "numberOfBytes": "1"
      },
      "t_mapping(t_address,t_bool)": {
        "encoding": "mapping",
        "key": "t_address",
        "label": "mapping(address => bool)",
        "numberOfBytes": "32",
        "value": "t_bool"
      },
      "t_mapping(t_address,t_mapping(t_address,t_bool))": {
        "encoding": "mapping",
        "key": "t_address",
        "label": "mapping(address => mapping(address => bool))",
        "numberOfBytes": "32",
        "value": "t_mapping(t_address,t_bool)"
      },
      "t_mapping(t_address,t_uint256)": {
        "encoding": "mapping",
        "key": "t_address",
        "label": "mapping(address => uint256)",
        "numberOfBytes": "32",
        "value": "t_uint256"
      },
      "t_mapping(t_uint256,t_address)": {
        "encoding": "mapping",
        "key": "t_uint256",
        "label": "mapping(uint256 => address)",
        "numberOfBytes": "32",
        "value": "t_address"
      },
      "t_mapping(t_uint256,t_string_storage)": {
        "encoding": "mapping",
        "key": "t_uint256",
        "label": "mapping(uint256 => string)",
        "numberOfBytes": "32",
        "value": "t_string_storage"
      },
      "t_string_storage": {
        "encoding": "bytes",
        "label": "string",
        "numberOfBytes": "32"
      },
      "t_uint256": {
        "encoding": "inplace",
        "label": "uint256",
        "numberOfBytes": "32"
      }
    }
  }
}