{
  "address": "0x3792A66B68aA7dE7D451D86bB3DD1e932027420F",
  "abi": [
    {
      "inputs": [
        {
          "internalType": "string",
          "name": "name_",
          "type": "string"
        },
        {
          "internalType": "string",
          "name": "symbol_",
          "type": "string"
        }
      ],
      "stateMutability": "nonpayable",
      "type": "constructor"
    },
    {
      "anonymous": false,
      "inputs": [
        {
          "indexed": true,
          "internalType": "address",
          "name": "owner",
          "type": "address"
        },
        {
          "indexed": true,
          "internalType": "address",
          "name": "approved",
          "type": "address"
        },
        {
          "indexed": true,
          "internalType": "uint256",
          "name": "tokenId",
          "type": "uint256"
        }
      ],
      "name": "Approval",
      "type": "event"
    },
    {
      "anonymous": false,
      "inputs": [
        {
          "indexed": true,
          "internalType": "address",
          "name": "owner",
          "type": "address"
        },
        {
          "indexed": true,
          "internalType": "address",
          "name": "operator",
          "type": "address"
        },
        {
          "indexed": false,
          "internalType": "bool",
          "name": "approved",
          "type": "bool"
        }
      ],
      "name": "ApprovalForAll",
      "type": "event"
    },
    {
      "anonymous": false,
      "inputs": [
        {
          "indexed": true,
          "internalType": "address",
          "name": "previousOwner",
          "type": "address"
        },
        {
          "indexed": true,
          "internalType": "address",
          "name": "newOwner",
          "type": "address"
        }
      ],
      "name": "OwnershipTransferred",
      "type": "event"
    },
    {
      "anonymous": false,
      "inputs": [
        {
          "indexed": true,
          "internalType": "address",
          "name": "from",
          "type": "address"
        },
        {
          "indexed": true,
          "internalType": "address",
          "name": "to",
          "type": "address"
        },
        {
          "indexed": true,
          "internalType": "uint256",
          "name": "tokenId",
          "type": "uint256"
        }
      ],
      "name": "Transfer",
      "type": "event"
    },
    {
      "inputs": [
        {
          "internalType": "address",
          "name": "to",
          "type": "address"
        },
        {
          "internalType": "uint256",
          "name": "tokenId",
          "type": "uint256"
        }
      ],
      "name": "approve",
      "outputs": [],
      "stateMutability": "nonpayable",
      "type": "function"
    },
    {
      "inputs": [
        {
          "internalType": "address",
          "name": "owner",
          "type": "address"
        }
      ],
      "name": "balanceOf",
      "outputs": [
        {
          "internalType": "uint256",
          "name": "",
          "type": "uint256"
        }
      ],
      "stateMutability": "view",
      "type": "function"
    },
    {
      "inputs": [
        {
          "internalType": "uint256",
          "name": "tokenId",
          "type": "uint256"
        }
      ],
      "name": "getApproved",
      "outputs": [
        {
          "internalType": "address",
          "name": "",
          "type": "address"
        }
      ],
      "stateMutability": "view",
      "type": "function"
    },
    {
      "inputs": [
        {
          "internalType": "address",
          "name": "owner",
          "type": "address"
        },
        {
          "internalType": "address",
          "name": "operator",
          "type": "address"
        }
      ],
      "name": "isApprovedForAll",
      "outputs": [
        {
          "internalType": "bool",
          "name": "",
          "type": "bool"
        }
      ],
      "stateMutability": "view",
      "type": "function"
    },
    {
      "inputs": [],
      "name": "name",
      "outputs": [
        {
          "internalType": "string",
          "name": "",
          "type": "string"
        }
      ],
      "stateMutability": "view",
      "type": "function"
    },
    {
      "inputs": [],
      "name": "owner",
      "outputs": [
        {
          "internalType": "address",
          "name": "",
          "type": "address"
        }
      ],
      "stateMutability": "view",
      "type": "function"
    },
    {
      "inputs": [
        {
          "internalType": "uint256",
          "name": "tokenId",
          "type": "uint256"
        }
      ],
      "name": "ownerOf",
      "outputs": [
        {
          "internalType": "address",
          "name": "",
          "type": "address"
        }
      ],
      "stateMutability": "view",
      "type": "function"
    },
    {
      "inputs": [],
      "name": "renounceOwnership",
      "outputs": [],
      "stateMutability": "nonpayable",
      "type": "function"
    },
    {
      "inputs": [
        {
          "internalType": "address",
          "name": "to",
          "type": "address"
        },
        {
          "internalType": "uint256",
          "name": "tokenId",
          "type": "uint256"
        }
      ],
      "name": "safeMint",
      "outputs": [],
      "stateMutability": "nonpayable",
      "type": "function"
    },
    {
      "inputs": [
        {
          "internalType": "address",
          "name": "from",
          "type": "address"
        },
        {
          "internalType": "address",
          "name": "to",
          "type": "address"
        },
        {
          "internalType": "uint256",
          "name": "tokenId",
          "type": "uint256"
        }
      ],
      "name": "safeTransferFrom",
      "outputs": [],
      "stateMutability": "nonpayable",
      "type": "function"
    },
    {
      "inputs": [
        {
          "internalType": "address",
          "name": "from",
          "type": "address"
        },
        {
          "internalType": "address",
          "name": "to",
          "type": "address"
        },
        {
          "internalType": "uint256",
          "name": "tokenId",
          "type": "uint256"
        },
        {
          "internalType": "bytes",
          "name": "_data",
          "type": "bytes"
        }
      ],
      "name": "safeTransferFrom",
      "outputs": [],
      "stateMutability": "nonpayable",
      "type": "function"
    },
    {
      "inputs": [
        {
          "internalType": "address",
          "name": "operator",
          "type": "address"
        },
        {
          "internalType": "bool",
          "name": "approved",
          "type": "bool"
        }
      ],
      "name": "setApprovalForAll",
      "outputs": [],
      "stateMutability": "nonpayable",
      "type": "function"
    },
    {
      "inputs": [
        {
          "internalType": "string",
          "name": "newBaseURI",
          "type": "string"
        }
      ],
      "name": "setBaseURI",
      "outputs": [],
      "stateMutability": "nonpayable",
      "type": "function"
    },
    {
      "inputs": [
        {
          "internalType": "bytes4",
          "name": "interfaceId",
          "type": "bytes4"
        }
      ],
      "name": "supportsInterface",
      "outputs": [
        {
          "internalType": "bool",
          "name": "",
          "type": "bool"
        }
      ],
      "stateMutability": "view",
      "type": "function"
    },
    {
      "inputs": [],
      "name": "symbol",
      "outputs": [
        {
          "internalType": "string",
          "name": "",
          "type": "string"
        }
      ],
      "stateMutability": "view",
      "type": "function"
    },
    {
      "inputs": [
        {
          "internalType": "uint256",
          "name": "tokenId",
          "type": "uint256"
        }
      ],
      "name": "tokenURI",
      "outputs": [
        {
          "internalType": "string",
          "name": "",
          "type": "string"
        }
      ],
      "stateMutability": "view",
      "type": "function"
    },
    {
      "inputs": [
        {
          "internalType": "address",
          "name": "from",
          "type": "address"
        },
        {
          "internalType": "address",
          "name": "to",
          "type": "address"
        },
        {
          "internalType": "uint256",
          "name": "tokenId",
          "type": "uint256"
        }
      ],
      "name": "transferFrom",
      "outputs": [],
      "stateMutability": "nonpayable",
      "type": "function"
    },
    {
      "inputs": [
        {
          "internalType": "address",
          "name": "newOwner",
          "type": "address"
        }
      ],
      "name": "transferOwnership",
      "outputs": [],
      "stateMutability": "nonpayable",
      "type": "function"
    }
  ],
  "transactionHash": "0x4f5897ce86a69b6aef6e91ef8bd8e6899eef3683d69b7c9fc7c64094966bc3d9",
  "args": [
    "Taller de programacion 2 - Prizes",
    "TP2P"
  ],
  "solcInputHash": "6eaa58bc7dfe380a7be4ad88d2c73b5c",
  "bytecode": "0x60806040523480156200001157600080fd5b506040516200329638038062003296833981810160405281019062000037919062000250565b81818160009080519060200190620000519291906200012e565b5080600190805190602001906200006a9291906200012e565b50505060006200007f6200012660201b60201c565b905080600660006101000a81548173ffffffffffffffffffffffffffffffffffffffff021916908373ffffffffffffffffffffffffffffffffffffffff1602179055508073ffffffffffffffffffffffffffffffffffffffff16600073ffffffffffffffffffffffffffffffffffffffff167f8be0079c531659141344cd1fd0a4f28419497f9722a3daafe3b4186f6b6457e060405160405180910390a350505062000433565b600033905090565b8280546200013c9062000358565b90600052602060002090601f016020900481019282620001605760008555620001ac565b82601f106200017b57805160ff1916838001178555620001ac565b82800160010185558215620001ac579182015b82811115620001ab5782518255916020019190600101906200018e565b5b509050620001bb9190620001bf565b5090565b5b80821115620001da576000816000905550600101620001c0565b5090565b6000620001f5620001ef84620002ec565b620002c3565b9050828152602081018484840111156200020e57600080fd5b6200021b84828562000322565b509392505050565b600082601f8301126200023557600080fd5b815162000247848260208601620001de565b91505092915050565b600080604083850312156200026457600080fd5b600083015167ffffffffffffffff8111156200027f57600080fd5b6200028d8582860162000223565b925050602083015167ffffffffffffffff811115620002ab57600080fd5b620002b98582860162000223565b9150509250929050565b6000620002cf620002e2565b9050620002dd82826200038e565b919050565b6000604051905090565b600067ffffffffffffffff8211156200030a5762000309620003f3565b5b620003158262000422565b9050602081019050919050565b60005b838110156200034257808201518184015260208101905062000325565b8381111562000352576000848401525b50505050565b600060028204905060018216806200037157607f821691505b60208210811415620003885762000387620003c4565b5b50919050565b620003998262000422565b810181811067ffffffffffffffff82111715620003bb57620003ba620003f3565b5b80604052505050565b7f4e487b7100000000000000000000000000000000000000000000000000000000600052602260045260246000fd5b7f4e487b7100000000000000000000000000000000000000000000000000000000600052604160045260246000fd5b6000601f19601f8301169050919050565b612e5380620004436000396000f3fe608060405234801561001057600080fd5b50600436106101165760003560e01c8063715018a6116100a2578063a22cb46511610071578063a22cb465146102cb578063b88d4fde146102e7578063c87b56dd14610303578063e985e9c514610333578063f2fde38b1461036357610116565b8063715018a6146102695780638da5cb5b1461027357806395d89b4114610291578063a1448194146102af57610116565b806323b872dd116100e957806323b872dd146101b557806342842e0e146101d157806355f804b3146101ed5780636352211e1461020957806370a082311461023957610116565b806301ffc9a71461011b57806306fdde031461014b578063081812fc14610169578063095ea7b314610199575b600080fd5b61013560048036038101906101309190611f12565b61037f565b604051610142919061235d565b60405180910390f35b610153610461565b6040516101609190612378565b60405180910390f35b610183600480360381019061017e9190611fa9565b6104f3565b60405161019091906122f6565b60405180910390f35b6101b360048036038101906101ae9190611ed6565b610578565b005b6101cf60048036038101906101ca9190611dd0565b610690565b005b6101eb60048036038101906101e69190611dd0565b6106f0565b005b61020760048036038101906102029190611f64565b610710565b005b610223600480360381019061021e9190611fa9565b6107a2565b60405161023091906122f6565b60405180910390f35b610253600480360381019061024e9190611d6b565b610854565b604051610260919061259a565b60405180910390f35b61027161090c565b005b61027b610a49565b60405161028891906122f6565b60405180910390f35b610299610a73565b6040516102a69190612378565b60405180910390f35b6102c960048036038101906102c49190611ed6565b610b05565b005b6102e560048036038101906102e09190611e9a565b610b9f565b005b61030160048036038101906102fc9190611e1f565b610d20565b005b61031d60048036038101906103189190611fa9565b610d82565b60405161032a9190612378565b60405180910390f35b61034d60048036038101906103489190611d94565b610e29565b60405161035a919061235d565b60405180910390f35b61037d60048036038101906103789190611d6b565b610ebd565b005b60007f80ac58cd000000000000000000000000000000000000000000000000000000007bffffffffffffffffffffffffffffffffffffffffffffffffffffffff1916827bffffffffffffffffffffffffffffffffffffffffffffffffffffffff1916148061044a57507f5b5e139f000000000000000000000000000000000000000000000000000000007bffffffffffffffffffffffffffffffffffffffffffffffffffffffff1916827bffffffffffffffffffffffffffffffffffffffffffffffffffffffff1916145b8061045a575061045982611069565b5b9050919050565b606060008054610470906127bf565b80601f016020809104026020016040519081016040528092919081815260200182805461049c906127bf565b80156104e95780601f106104be576101008083540402835291602001916104e9565b820191906000526020600020905b8154815290600101906020018083116104cc57829003601f168201915b5050505050905090565b60006104fe826110d3565b61053d576040517f08c379a0000000000000000000000000000000000000000000000000000000008152600401610534906124da565b60405180910390fd5b6004600083815260200190815260200160002060009054906101000a900473ffffffffffffffffffffffffffffffffffffffff169050919050565b6000610583826107a2565b90508073ffffffffffffffffffffffffffffffffffffffff168373ffffffffffffffffffffffffffffffffffffffff1614156105f4576040517f08c379a00000000000000000000000000000000000000000000000000000000081526004016105eb9061255a565b60405180910390fd5b8073ffffffffffffffffffffffffffffffffffffffff1661061361113f565b73ffffffffffffffffffffffffffffffffffffffff16148061064257506106418161063c61113f565b610e29565b5b610681576040517f08c379a00000000000000000000000000000000000000000000000000000000081526004016106789061245a565b60405180910390fd5b61068b8383611147565b505050565b6106a161069b61113f565b82611200565b6106e0576040517f08c379a00000000000000000000000000000000000000000000000000000000081526004016106d79061257a565b60405180910390fd5b6106eb8383836112de565b505050565b61070b83838360405180602001604052806000815250610d20565b505050565b61071861113f565b73ffffffffffffffffffffffffffffffffffffffff16610736610a49565b73ffffffffffffffffffffffffffffffffffffffff161461078c576040517f08c379a0000000000000000000000000000000000000000000000000000000008152600401610783906124fa565b60405180910390fd5b81816007919061079d929190611bad565b505050565b6000806002600084815260200190815260200160002060009054906101000a900473ffffffffffffffffffffffffffffffffffffffff169050600073ffffffffffffffffffffffffffffffffffffffff168173ffffffffffffffffffffffffffffffffffffffff16141561084b576040517f08c379a00000000000000000000000000000000000000000000000000000000081526004016108429061249a565b60405180910390fd5b80915050919050565b60008073ffffffffffffffffffffffffffffffffffffffff168273ffffffffffffffffffffffffffffffffffffffff1614156108c5576040517f08c379a00000000000000000000000000000000000000000000000000000000081526004016108bc9061247a565b60405180910390fd5b600360008373ffffffffffffffffffffffffffffffffffffffff1673ffffffffffffffffffffffffffffffffffffffff168152602001908152602001600020549050919050565b61091461113f565b73ffffffffffffffffffffffffffffffffffffffff16610932610a49565b73ffffffffffffffffffffffffffffffffffffffff1614610988576040517f08c379a000000000000000000000000000000000000000000000000000000000815260040161097f906124fa565b60405180910390fd5b600073ffffffffffffffffffffffffffffffffffffffff16600660009054906101000a900473ffffffffffffffffffffffffffffffffffffffff1673ffffffffffffffffffffffffffffffffffffffff167f8be0079c531659141344cd1fd0a4f28419497f9722a3daafe3b4186f6b6457e060405160405180910390a36000600660006101000a81548173ffffffffffffffffffffffffffffffffffffffff021916908373ffffffffffffffffffffffffffffffffffffffff160217905550565b6000600660009054906101000a900473ffffffffffffffffffffffffffffffffffffffff16905090565b606060018054610a82906127bf565b80601f0160208091040260200160405190810160405280929190818152602001828054610aae906127bf565b8015610afb5780601f10610ad057610100808354040283529160200191610afb565b820191906000526020600020905b815481529060010190602001808311610ade57829003601f168201915b5050505050905090565b610b0d61113f565b73ffffffffffffffffffffffffffffffffffffffff16610b2b610a49565b73ffffffffffffffffffffffffffffffffffffffff1614610b81576040517f08c379a0000000000000000000000000000000000000000000000000000000008152600401610b78906124fa565b60405180910390fd5b610b9b82826040518060200160405280600081525061153a565b5050565b610ba761113f565b73ffffffffffffffffffffffffffffffffffffffff168273ffffffffffffffffffffffffffffffffffffffff161415610c15576040517f08c379a0000000000000000000000000000000000000000000000000000000008152600401610c0c9061241a565b60405180910390fd5b8060056000610c2261113f565b73ffffffffffffffffffffffffffffffffffffffff1673ffffffffffffffffffffffffffffffffffffffff16815260200190815260200160002060008473ffffffffffffffffffffffffffffffffffffffff1673ffffffffffffffffffffffffffffffffffffffff16815260200190815260200160002060006101000a81548160ff0219169083151502179055508173ffffffffffffffffffffffffffffffffffffffff16610ccf61113f565b73ffffffffffffffffffffffffffffffffffffffff167f17307eab39ab6107e8899845ad3d59bd9653f200f220920489ca2b5937696c3183604051610d14919061235d565b60405180910390a35050565b610d31610d2b61113f565b83611200565b610d70576040517f08c379a0000000000000000000000000000000000000000000000000000000008152600401610d679061257a565b60405180910390fd5b610d7c84848484611595565b50505050565b6060610d8d826110d3565b610dcc576040517f08c379a0000000000000000000000000000000000000000000000000000000008152600401610dc39061253a565b60405180910390fd5b6000610dd66115f1565b90506000815111610df65760405180602001604052806000815250610e21565b80610e0084611683565b604051602001610e119291906122d2565b6040516020818303038152906040525b915050919050565b6000600560008473ffffffffffffffffffffffffffffffffffffffff1673ffffffffffffffffffffffffffffffffffffffff16815260200190815260200160002060008373ffffffffffffffffffffffffffffffffffffffff1673ffffffffffffffffffffffffffffffffffffffff16815260200190815260200160002060009054906101000a900460ff16905092915050565b610ec561113f565b73ffffffffffffffffffffffffffffffffffffffff16610ee3610a49565b73ffffffffffffffffffffffffffffffffffffffff1614610f39576040517f08c379a0000000000000000000000000000000000000000000000000000000008152600401610f30906124fa565b60405180910390fd5b600073ffffffffffffffffffffffffffffffffffffffff168173ffffffffffffffffffffffffffffffffffffffff161415610fa9576040517f08c379a0000000000000000000000000000000000000000000000000000000008152600401610fa0906123ba565b60405180910390fd5b8073ffffffffffffffffffffffffffffffffffffffff16600660009054906101000a900473ffffffffffffffffffffffffffffffffffffffff1673ffffffffffffffffffffffffffffffffffffffff167f8be0079c531659141344cd1fd0a4f28419497f9722a3daafe3b4186f6b6457e060405160405180910390a380600660006101000a81548173ffffffffffffffffffffffffffffffffffffffff021916908373ffffffffffffffffffffffffffffffffffffffff16021790555050565b60007f01ffc9a7000000000000000000000000000000000000000000000000000000007bffffffffffffffffffffffffffffffffffffffffffffffffffffffff1916827bffffffffffffffffffffffffffffffffffffffffffffffffffffffff1916149050919050565b60008073ffffffffffffffffffffffffffffffffffffffff166002600084815260200190815260200160002060009054906101000a900473ffffffffffffffffffffffffffffffffffffffff1673ffffffffffffffffffffffffffffffffffffffff1614159050919050565b600033905090565b816004600083815260200190815260200160002060006101000a81548173ffffffffffffffffffffffffffffffffffffffff021916908373ffffffffffffffffffffffffffffffffffffffff160217905550808273ffffffffffffffffffffffffffffffffffffffff166111ba836107a2565b73ffffffffffffffffffffffffffffffffffffffff167f8c5be1e5ebec7d5bd14f71427d1e84f3dd0314c0f7b2291e5b200ac8c7c3b92560405160405180910390a45050565b600061120b826110d3565b61124a576040517f08c379a00000000000000000000000000000000000000000000000000000000081526004016112419061243a565b60405180910390fd5b6000611255836107a2565b90508073ffffffffffffffffffffffffffffffffffffffff168473ffffffffffffffffffffffffffffffffffffffff1614806112c457508373ffffffffffffffffffffffffffffffffffffffff166112ac846104f3565b73ffffffffffffffffffffffffffffffffffffffff16145b806112d557506112d48185610e29565b5b91505092915050565b8273ffffffffffffffffffffffffffffffffffffffff166112fe826107a2565b73ffffffffffffffffffffffffffffffffffffffff1614611354576040517f08c379a000000000000000000000000000000000000000000000000000000000815260040161134b9061251a565b60405180910390fd5b600073ffffffffffffffffffffffffffffffffffffffff168273ffffffffffffffffffffffffffffffffffffffff1614156113c4576040517f08c379a00000000000000000000000000000000000000000000000000000000081526004016113bb906123fa565b60405180910390fd5b6113cf838383611830565b6113da600082611147565b6001600360008573ffffffffffffffffffffffffffffffffffffffff1673ffffffffffffffffffffffffffffffffffffffff168152602001908152602001600020600082825461142a91906126d5565b925050819055506001600360008473ffffffffffffffffffffffffffffffffffffffff1673ffffffffffffffffffffffffffffffffffffffff1681526020019081526020016000206000828254611481919061264e565b92505081905550816002600083815260200190815260200160002060006101000a81548173ffffffffffffffffffffffffffffffffffffffff021916908373ffffffffffffffffffffffffffffffffffffffff160217905550808273ffffffffffffffffffffffffffffffffffffffff168473ffffffffffffffffffffffffffffffffffffffff167fddf252ad1be2c89b69c2b068fc378daa952ba7f163c4a11628f55a4df523b3ef60405160405180910390a4505050565b6115448383611835565b6115516000848484611a03565b611590576040517f08c379a00000000000000000000000000000000000000000000000000000000081526004016115879061239a565b60405180910390fd5b505050565b6115a08484846112de565b6115ac84848484611a03565b6115eb576040517f08c379a00000000000000000000000000000000000000000000000000000000081526004016115e29061239a565b60405180910390fd5b50505050565b606060078054611600906127bf565b80601f016020809104026020016040519081016040528092919081815260200182805461162c906127bf565b80156116795780601f1061164e57610100808354040283529160200191611679565b820191906000526020600020905b81548152906001019060200180831161165c57829003601f168201915b5050505050905090565b606060008214156116cb576040518060400160405280600181526020017f3000000000000000000000000000000000000000000000000000000000000000815250905061182b565b600082905060005b600082146116fd5780806116e690612822565b915050600a826116f691906126a4565b91506116d3565b60008167ffffffffffffffff81111561173f577f4e487b7100000000000000000000000000000000000000000000000000000000600052604160045260246000fd5b6040519080825280601f01601f1916602001820160405280156117715781602001600182028036833780820191505090505b5090505b600085146118245760018261178a91906126d5565b9150600a85611799919061286b565b60306117a5919061264e565b60f81b8183815181106117e1577f4e487b7100000000000000000000000000000000000000000000000000000000600052603260045260246000fd5b60200101907effffffffffffffffffffffffffffffffffffffffffffffffffffffffffffff1916908160001a905350600a8561181d91906126a4565b9450611775565b8093505050505b919050565b505050565b600073ffffffffffffffffffffffffffffffffffffffff168273ffffffffffffffffffffffffffffffffffffffff1614156118a5576040517f08c379a000000000000000000000000000000000000000000000000000000000815260040161189c906124ba565b60405180910390fd5b6118ae816110d3565b156118ee576040517f08c379a00000000000000000000000000000000000000000000000000000000081526004016118e5906123da565b60405180910390fd5b6118fa60008383611830565b6001600360008473ffffffffffffffffffffffffffffffffffffffff1673ffffffffffffffffffffffffffffffffffffffff168152602001908152602001600020600082825461194a919061264e565b92505081905550816002600083815260200190815260200160002060006101000a81548173ffffffffffffffffffffffffffffffffffffffff021916908373ffffffffffffffffffffffffffffffffffffffff160217905550808273ffffffffffffffffffffffffffffffffffffffff16600073ffffffffffffffffffffffffffffffffffffffff167fddf252ad1be2c89b69c2b068fc378daa952ba7f163c4a11628f55a4df523b3ef60405160405180910390a45050565b6000611a248473ffffffffffffffffffffffffffffffffffffffff16611b9a565b15611b8d578373ffffffffffffffffffffffffffffffffffffffff1663150b7a02611a4d61113f565b8786866040518563ffffffff1660e01b8152600401611a6f9493929190612311565b602060405180830381600087803b158015611a8957600080fd5b505af1925050508015611aba57506040513d601f19601f82011682018060405250810190611ab79190611f3b565b60015b611b3d573d8060008114611aea576040519150601f19603f3d011682016040523d82523d6000602084013e611aef565b606091505b50600081511415611b35576040517f08c379a0000000000000000000000000000000000000000000000000000000008152600401611b2c9061239a565b60405180910390fd5b805181602001fd5b63150b7a0260e01b7bffffffffffffffffffffffffffffffffffffffffffffffffffffffff1916817bffffffffffffffffffffffffffffffffffffffffffffffffffffffff191614915050611b92565b600190505b949350505050565b600080823b905060008111915050919050565b828054611bb9906127bf565b90600052602060002090601f016020900481019282611bdb5760008555611c22565b82601f10611bf457803560ff1916838001178555611c22565b82800160010185558215611c22579182015b82811115611c21578235825591602001919060010190611c06565b5b509050611c2f9190611c33565b5090565b5b80821115611c4c576000816000905550600101611c34565b5090565b6000611c63611c5e846125da565b6125b5565b905082815260208101848484011115611c7b57600080fd5b611c8684828561277d565b509392505050565b600081359050611c9d81612dc1565b92915050565b600081359050611cb281612dd8565b92915050565b600081359050611cc781612def565b92915050565b600081519050611cdc81612def565b92915050565b600082601f830112611cf357600080fd5b8135611d03848260208601611c50565b91505092915050565b60008083601f840112611d1e57600080fd5b8235905067ffffffffffffffff811115611d3757600080fd5b602083019150836001820283011115611d4f57600080fd5b9250929050565b600081359050611d6581612e06565b92915050565b600060208284031215611d7d57600080fd5b6000611d8b84828501611c8e565b91505092915050565b60008060408385031215611da757600080fd5b6000611db585828601611c8e565b9250506020611dc685828601611c8e565b9150509250929050565b600080600060608486031215611de557600080fd5b6000611df386828701611c8e565b9350506020611e0486828701611c8e565b9250506040611e1586828701611d56565b9150509250925092565b60008060008060808587031215611e3557600080fd5b6000611e4387828801611c8e565b9450506020611e5487828801611c8e565b9350506040611e6587828801611d56565b925050606085013567ffffffffffffffff811115611e8257600080fd5b611e8e87828801611ce2565b91505092959194509250565b60008060408385031215611ead57600080fd5b6000611ebb85828601611c8e565b9250506020611ecc85828601611ca3565b9150509250929050565b60008060408385031215611ee957600080fd5b6000611ef785828601611c8e565b9250506020611f0885828601611d56565b9150509250929050565b600060208284031215611f2457600080fd5b6000611f3284828501611cb8565b91505092915050565b600060208284031215611f4d57600080fd5b6000611f5b84828501611ccd565b91505092915050565b60008060208385031215611f7757600080fd5b600083013567ffffffffffffffff811115611f9157600080fd5b611f9d85828601611d0c565b92509250509250929050565b600060208284031215611fbb57600080fd5b6000611fc984828501611d56565b91505092915050565b611fdb81612709565b82525050565b611fea8161271b565b82525050565b6000611ffb8261260b565b6120058185612621565b935061201581856020860161278c565b61201e81612958565b840191505092915050565b600061203482612616565b61203e8185612632565b935061204e81856020860161278c565b61205781612958565b840191505092915050565b600061206d82612616565b6120778185612643565b935061208781856020860161278c565b80840191505092915050565b60006120a0603283612632565b91506120ab82612969565b604082019050919050565b60006120c3602683612632565b91506120ce826129b8565b604082019050919050565b60006120e6601c83612632565b91506120f182612a07565b602082019050919050565b6000612109602483612632565b915061211482612a30565b604082019050919050565b600061212c601983612632565b915061213782612a7f565b602082019050919050565b600061214f602c83612632565b915061215a82612aa8565b604082019050919050565b6000612172603883612632565b915061217d82612af7565b604082019050919050565b6000612195602a83612632565b91506121a082612b46565b604082019050919050565b60006121b8602983612632565b91506121c382612b95565b604082019050919050565b60006121db602083612632565b91506121e682612be4565b602082019050919050565b60006121fe602c83612632565b915061220982612c0d565b604082019050919050565b6000612221602083612632565b915061222c82612c5c565b602082019050919050565b6000612244602983612632565b915061224f82612c85565b604082019050919050565b6000612267602f83612632565b915061227282612cd4565b604082019050919050565b600061228a602183612632565b915061229582612d23565b604082019050919050565b60006122ad603183612632565b91506122b882612d72565b604082019050919050565b6122cc81612773565b82525050565b60006122de8285612062565b91506122ea8284612062565b91508190509392505050565b600060208201905061230b6000830184611fd2565b92915050565b60006080820190506123266000830187611fd2565b6123336020830186611fd2565b61234060408301856122c3565b81810360608301526123528184611ff0565b905095945050505050565b60006020820190506123726000830184611fe1565b92915050565b600060208201905081810360008301526123928184612029565b905092915050565b600060208201905081810360008301526123b381612093565b9050919050565b600060208201905081810360008301526123d3816120b6565b9050919050565b600060208201905081810360008301526123f3816120d9565b9050919050565b60006020820190508181036000830152612413816120fc565b9050919050565b600060208201905081810360008301526124338161211f565b9050919050565b6000602082019050818103600083015261245381612142565b9050919050565b6000602082019050818103600083015261247381612165565b9050919050565b6000602082019050818103600083015261249381612188565b9050919050565b600060208201905081810360008301526124b3816121ab565b9050919050565b600060208201905081810360008301526124d3816121ce565b9050919050565b600060208201905081810360008301526124f3816121f1565b9050919050565b6000602082019050818103600083015261251381612214565b9050919050565b6000602082019050818103600083015261253381612237565b9050919050565b600060208201905081810360008301526125538161225a565b9050919050565b600060208201905081810360008301526125738161227d565b9050919050565b60006020820190508181036000830152612593816122a0565b9050919050565b60006020820190506125af60008301846122c3565b92915050565b60006125bf6125d0565b90506125cb82826127f1565b919050565b6000604051905090565b600067ffffffffffffffff8211156125f5576125f4612929565b5b6125fe82612958565b9050602081019050919050565b600081519050919050565b600081519050919050565b600082825260208201905092915050565b600082825260208201905092915050565b600081905092915050565b600061265982612773565b915061266483612773565b9250827fffffffffffffffffffffffffffffffffffffffffffffffffffffffffffffffff038211156126995761269861289c565b5b828201905092915050565b60006126af82612773565b91506126ba83612773565b9250826126ca576126c96128cb565b5b828204905092915050565b60006126e082612773565b91506126eb83612773565b9250828210156126fe576126fd61289c565b5b828203905092915050565b600061271482612753565b9050919050565b60008115159050919050565b60007fffffffff0000000000000000000000000000000000000000000000000000000082169050919050565b600073ffffffffffffffffffffffffffffffffffffffff82169050919050565b6000819050919050565b82818337600083830152505050565b60005b838110156127aa57808201518184015260208101905061278f565b838111156127b9576000848401525b50505050565b600060028204905060018216806127d757607f821691505b602082108114156127eb576127ea6128fa565b5b50919050565b6127fa82612958565b810181811067ffffffffffffffff8211171561281957612818612929565b5b80604052505050565b600061282d82612773565b91507fffffffffffffffffffffffffffffffffffffffffffffffffffffffffffffffff8214156128605761285f61289c565b5b600182019050919050565b600061287682612773565b915061288183612773565b925082612891576128906128cb565b5b828206905092915050565b7f4e487b7100000000000000000000000000000000000000000000000000000000600052601160045260246000fd5b7f4e487b7100000000000000000000000000000000000000000000000000000000600052601260045260246000fd5b7f4e487b7100000000000000000000000000000000000000000000000000000000600052602260045260246000fd5b7f4e487b7100000000000000000000000000000000000000000000000000000000600052604160045260246000fd5b6000601f19601f8301169050919050565b7f4552433732313a207472616e7366657220746f206e6f6e20455243373231526560008201527f63656976657220696d706c656d656e7465720000000000000000000000000000602082015250565b7f4f776e61626c653a206e6577206f776e657220697320746865207a65726f206160008201527f6464726573730000000000000000000000000000000000000000000000000000602082015250565b7f4552433732313a20746f6b656e20616c7265616479206d696e74656400000000600082015250565b7f4552433732313a207472616e7366657220746f20746865207a65726f2061646460008201527f7265737300000000000000000000000000000000000000000000000000000000602082015250565b7f4552433732313a20617070726f766520746f2063616c6c657200000000000000600082015250565b7f4552433732313a206f70657261746f7220717565727920666f72206e6f6e657860008201527f697374656e7420746f6b656e0000000000000000000000000000000000000000602082015250565b7f4552433732313a20617070726f76652063616c6c6572206973206e6f74206f7760008201527f6e6572206e6f7220617070726f76656420666f7220616c6c0000000000000000602082015250565b7f4552433732313a2062616c616e636520717565727920666f7220746865207a6560008201527f726f206164647265737300000000000000000000000000000000000000000000602082015250565b7f4552433732313a206f776e657220717565727920666f72206e6f6e657869737460008201527f656e7420746f6b656e0000000000000000000000000000000000000000000000602082015250565b7f4552433732313a206d696e7420746f20746865207a65726f2061646472657373600082015250565b7f4552433732313a20617070726f76656420717565727920666f72206e6f6e657860008201527f697374656e7420746f6b656e0000000000000000000000000000000000000000602082015250565b7f4f776e61626c653a2063616c6c6572206973206e6f7420746865206f776e6572600082015250565b7f4552433732313a207472616e73666572206f6620746f6b656e2074686174206960008201527f73206e6f74206f776e0000000000000000000000000000000000000000000000602082015250565b7f4552433732314d657461646174613a2055524920717565727920666f72206e6f60008201527f6e6578697374656e7420746f6b656e0000000000000000000000000000000000602082015250565b7f4552433732313a20617070726f76616c20746f2063757272656e74206f776e6560008201527f7200000000000000000000000000000000000000000000000000000000000000602082015250565b7f4552433732313a207472616e736665722063616c6c6572206973206e6f74206f60008201527f776e6572206e6f7220617070726f766564000000000000000000000000000000602082015250565b612dca81612709565b8114612dd557600080fd5b50565b612de18161271b565b8114612dec57600080fd5b50565b612df881612727565b8114612e0357600080fd5b50565b612e0f81612773565b8114612e1a57600080fd5b5056fea264697066735822122041c57375249c2ee3111e131f178bc7cc450bdc648ffbc1a3d6e468f258e3318364736f6c63430008040033",
  "devdoc": {
    "kind": "dev",
    "methods": {
      "approve(address,uint256)": {
        "details": "See {IERC721-approve}."
      },
      "balanceOf(address)": {
        "details": "See {IERC721-balanceOf}."
      },
      "constructor": {
        "details": "Initializes the contract by setting a `name` and a `symbol` to the token collection."
      },
      "getApproved(uint256)": {
        "details": "See {IERC721-getApproved}."
      },
      "isApprovedForAll(address,address)": {
        "details": "See {IERC721-isApprovedForAll}."
      },
      "name()": {
        "details": "See {IERC721Metadata-name}."
      },
      "owner()": {
        "details": "Returns the address of the current owner."
      },
      "ownerOf(uint256)": {
        "details": "See {IERC721-ownerOf}."
      },
      "renounceOwnership()": {
        "details": "Leaves the contract without owner. It will not be possible to call `onlyOwner` functions anymore. Can only be called by the current owner. NOTE: Renouncing ownership will leave the contract without an owner, thereby removing any functionality that is only available to the owner."
      },
      "safeTransferFrom(address,address,uint256)": {
        "details": "See {IERC721-safeTransferFrom}."
      },
      "safeTransferFrom(address,address,uint256,bytes)": {
        "details": "See {IERC721-safeTransferFrom}."
      },
      "setApprovalForAll(address,bool)": {
        "details": "See {IERC721-setApprovalForAll}."
      },
      "supportsInterface(bytes4)": {
        "details": "See {IERC165-supportsInterface}."
      },
      "symbol()": {
        "details": "See {IERC721Metadata-symbol}."
      },
      "tokenURI(uint256)": {
        "details": "See {IERC721Metadata-tokenURI}."
      },
      "transferFrom(address,address,uint256)": {
        "details": "See {IERC721-transferFrom}."
      },
      "transferOwnership(address)": {
        "details": "Transfers ownership of the contract to a new account (`newOwner`). Can only be called by the current owner."
      }
    },
    "version": 1
  },
  "userdoc": {
    "kind": "user",
    "methods": {},
    "version": 1
  },
  "storageLayout": {
    "storage": [
      {
        "astId": 135,
        "contract": "contracts/Prizes.sol:Prizes",
        "label": "_name",
        "offset": 0,
        "slot": "0",
        "type": "t_string_storage"
      },
      {
        "astId": 137,
        "contract": "contracts/Prizes.sol:Prizes",
        "label": "_symbol",
        "offset": 0,
        "slot": "1",
        "type": "t_string_storage"
      },
      {
        "astId": 141,
        "contract": "contracts/Prizes.sol:Prizes",
        "label": "_owners",
        "offset": 0,
        "slot": "2",
        "type": "t_mapping(t_uint256,t_address)"
      },
      {
        "astId": 145,
        "contract": "contracts/Prizes.sol:Prizes",
        "label": "_balances",
        "offset": 0,
        "slot": "3",
        "type": "t_mapping(t_address,t_uint256)"
      },
      {
        "astId": 149,
        "contract": "contracts/Prizes.sol:Prizes",
        "label": "_tokenApprovals",
        "offset": 0,
        "slot": "4",
        "type": "t_mapping(t_uint256,t_address)"
      },
      {
        "astId": 155,
        "contract": "contracts/Prizes.sol:Prizes",
        "label": "_operatorApprovals",
        "offset": 0,
        "slot": "5",
        "type": "t_mapping(t_address,t_mapping(t_address,t_bool))"
      },
      {
        "astId": 7,
        "contract": "contracts/Prizes.sol:Prizes",
        "label": "_owner",
        "offset": 0,
        "slot": "6",
        "type": "t_address"
      },
      {
        "astId": 1657,
        "contract": "contracts/Prizes.sol:Prizes",
        "label": "baseURI",
        "offset": 0,
        "slot": "7",
        "type": "t_string_storage"
      }
    ],
    "types": {
      "t_address": {
        "encoding": "inplace",
        "label": "address",
        "numberOfBytes": "20"
      },
      "t_bool": {
        "encoding": "inplace",
        "label": "bool",
        "numberOfBytes": "1"
      },
      "t_mapping(t_address,t_bool)": {
        "encoding": "mapping",
        "key": "t_address",
        "label": "mapping(address => bool)",
        "numberOfBytes": "32",
        "value": "t_bool"
      },
      "t_mapping(t_address,t_mapping(t_address,t_bool))": {
        "encoding": "mapping",
        "key": "t_address",
        "label": "mapping(address => mapping(address => bool))",
        "numberOfBytes": "32",
        "value": "t_mapping(t_address,t_bool)"
      },
      "t_mapping(t_address,t_uint256)": {
        "encoding": "mapping",
        "key": "t_address",
        "label": "mapping(address => uint256)",
        "numberOfBytes": "32",
        "value": "t_uint256"
      },
      "t_mapping(t_uint256,t_address)": {
        "encoding": "mapping",
        "key": "t_uint256",
        "label": "mapping(uint256 => address)",
        "numberOfBytes": "32",
        "value": "t_address"
      },
      "t_string_storage": {
        "encoding": "bytes",
        "label": "string",
        "numberOfBytes": "32"
      },
      "t_uint256": {
        "encoding": "inplace",
        "label": "uint256",
        "numberOfBytes": "32"
      }
    }
  }
}